{
  "_format": "hh-sol-artifact-1",
  "contractName": "GovernanceFacet",
  "sourceName": "contracts/facets/GovernanceFacet.sol",
  "abi": [
    {
      "inputs": [
        {
          "internalType": "uint256",
          "name": "_finalPriceChallengePeriod",
          "type": "uint256"
        }
      ],
      "name": "setFinalPriceChallengePeriod",
      "outputs": [
        {
          "internalType": "bool",
          "name": "",
          "type": "bool"
        }
      ],
      "stateMutability": "nonpayable",
      "type": "function"
    },
    {
      "inputs": [
        {
          "internalType": "uint256",
          "name": "_finalPriceReviewPeriod",
          "type": "uint256"
        }
      ],
      "name": "setFinalPriceReviewPeriod",
      "outputs": [
        {
          "internalType": "bool",
          "name": "",
          "type": "bool"
        }
      ],
      "stateMutability": "nonpayable",
      "type": "function"
    },
    {
      "inputs": [
        {
          "internalType": "uint256",
          "name": "_finalPriceSubmissionPeriod",
          "type": "uint256"
        }
      ],
      "name": "setFinalPriceSubmissionPeriod",
      "outputs": [
        {
          "internalType": "bool",
          "name": "",
          "type": "bool"
        }
      ],
      "stateMutability": "nonpayable",
      "type": "function"
    },
    {
      "inputs": [
        {
          "internalType": "uint256",
          "name": "_redemptionFee",
          "type": "uint256"
        }
      ],
      "name": "setRedemptionFee",
      "outputs": [
        {
          "internalType": "bool",
          "name": "",
          "type": "bool"
        }
      ],
      "stateMutability": "nonpayable",
      "type": "function"
    },
    {
      "inputs": [
        {
          "internalType": "uint256",
          "name": "_settlementFee",
          "type": "uint256"
        }
      ],
      "name": "setSettlementFee",
      "outputs": [
        {
          "internalType": "bool",
          "name": "",
          "type": "bool"
        }
      ],
      "stateMutability": "nonpayable",
      "type": "function"
    },
    {
      "inputs": [
        {
          "internalType": "address",
          "name": "_newTreasury",
          "type": "address"
        }
      ],
      "name": "setTreasuryAddress",
      "outputs": [
        {
          "internalType": "bool",
          "name": "",
          "type": "bool"
        }
      ],
      "stateMutability": "nonpayable",
      "type": "function"
    }
  ],
  "bytecode": "0x608060405234801561001057600080fd5b5061065e806100206000396000f3fe608060405234801561001057600080fd5b50600436106100625760003560e01c80631625dc3a14610067578063249d3b10146100975780634af36c82146100c75780636605bfda146100f75780637dbc1df014610127578063d5da4f1d14610157575b600080fd5b610081600480360381019061007c91906104b3565b610187565b60405161008e9190610512565b60405180910390f35b6100b160048036038101906100ac91906104b3565b6101cf565b6040516100be9190610512565b60405180910390f35b6100e160048036038101906100dc91906104b3565b610217565b6040516100ee9190610512565b60405180910390f35b610111600480360381019061010c9190610486565b61026e565b60405161011e9190610512565b60405180910390f35b610141600480360381019061013c91906104b3565b6102d1565b60405161014e9190610512565b60405180910390f35b610171600480360381019061016c91906104b3565b61031c565b60405161017e9190610512565b60405180910390f35b6000610191610367565b6201518082101580156101a757506213c6808211155b6101b057600080fd5b60006101ba610402565b90508281600201819055506001915050919050565b60006101d9610367565b6201518082101580156101ef57506213c6808211155b6101f857600080fd5b6000610202610402565b90508281600401819055506001915050919050565b6000610221610367565b600061022b610402565b905062015180831015801561024357506213c6808311155b80156102525750806002015483115b61025b57600080fd5b8281600301819055506001915050919050565b6000610278610367565b6000610282610402565b9050828160050160006101000a81548173ffffffffffffffffffffffffffffffffffffffff021916908373ffffffffffffffffffffffffffffffffffffffff1602179055506001915050919050565b60006102db610367565b6608e1bc9bf040008211156102ef57600080fd5b60008210156102fd57600080fd5b6000610307610402565b90508281600001819055506001915050919050565b6000610326610367565b6601c6bf5263400082111561033a57600080fd5b600082101561034857600080fd5b6000610352610402565b90508281600101819055506001915050919050565b61036f61042f565b60040160009054906101000a900473ffffffffffffffffffffffffffffffffffffffff1673ffffffffffffffffffffffffffffffffffffffff163373ffffffffffffffffffffffffffffffffffffffff1614610400576040517f08c379a00000000000000000000000000000000000000000000000000000000081526004016103f79061052d565b60405180910390fd5b565b6000807f898b136e888260ec0628fb6c3ad8f54cb15908878595b2abfc8c9ecda73a4daf90508091505090565b6000807fc8fcad8db84d3cc18b4c41d551ea0ee66dd599cde068d998e57d5e09332c131c90508091505090565b60008135905061046b816105fa565b92915050565b60008135905061048081610611565b92915050565b60006020828403121561049c5761049b6105a6565b5b60006104aa8482850161045c565b91505092915050565b6000602082840312156104c9576104c86105a6565b5b60006104d784828501610471565b91505092915050565b6104e981610570565b82525050565b60006104fc60228361054d565b9150610507826105ab565b604082019050919050565b600060208201905061052760008301846104e0565b92915050565b60006020820190508181036000830152610546816104ef565b9050919050565b600082825260208201905092915050565b60006105698261057c565b9050919050565b60008115159050919050565b600073ffffffffffffffffffffffffffffffffffffffff82169050919050565b6000819050919050565b600080fd5b7f4c69624469616d6f6e643a204d75737420626520636f6e7472616374206f776e60008201527f6572000000000000000000000000000000000000000000000000000000000000602082015250565b6106038161055e565b811461060e57600080fd5b50565b61061a8161059c565b811461062557600080fd5b5056fea26469706673582212207bdc81418ee6ace98aaeff0d921a475d3de0647586c1e40115ad7cd9bca998d364736f6c63430008060033",
  "linkReferences": {},
  "deployedLinkReferences": {}
}