{
  "_format": "hh-sol-artifact-1",
  "contractName": "SettlementFacet",
  "sourceName": "contracts/facets/SettlementFacet.sol",
  "abi": [
    {
      "anonymous": false,
      "inputs": [
        {
          "indexed": true,
          "internalType": "enum LibDiamond.Status",
          "name": "settlementStatus",
          "type": "uint8"
        },
        {
          "indexed": true,
          "internalType": "address",
          "name": "dataFeedProvider",
          "type": "address"
        },
        {
          "indexed": true,
          "internalType": "uint256",
          "name": "optionSetId",
          "type": "uint256"
        },
        {
          "indexed": false,
          "internalType": "uint256",
          "name": "proposedFinalPrice",
          "type": "uint256"
        }
      ],
      "name": "StatusChanged",
      "type": "event"
    },
    {
      "inputs": [
        {
          "internalType": "uint256",
          "name": "_optionSetId",
          "type": "uint256"
        },
        {
          "internalType": "uint256",
          "name": "_proposedFinalPrice",
          "type": "uint256"
        }
      ],
      "name": "challengeFinalPriceById",
      "outputs": [
        {
          "internalType": "bool",
          "name": "",
          "type": "bool"
        }
      ],
      "stateMutability": "nonpayable",
      "type": "function"
    },
    {
      "inputs": [
        {
          "internalType": "address",
          "name": "_positionToken",
          "type": "address"
        },
        {
          "internalType": "uint256",
          "name": "_amount",
          "type": "uint256"
        }
      ],
      "name": "redeemPositionToken",
      "outputs": [
        {
          "internalType": "bool",
          "name": "",
          "type": "bool"
        }
      ],
      "stateMutability": "nonpayable",
      "type": "function"
    },
    {
      "inputs": [
        {
          "internalType": "uint256",
          "name": "_optionSetId",
          "type": "uint256"
        },
        {
          "internalType": "uint256",
          "name": "_finalReferencePrice",
          "type": "uint256"
        },
        {
          "internalType": "bool",
          "name": "allowChallenge",
          "type": "bool"
        }
      ],
      "name": "setFinalPriceById",
      "outputs": [
        {
          "internalType": "bool",
          "name": "",
          "type": "bool"
        }
      ],
      "stateMutability": "nonpayable",
      "type": "function"
    }
  ],
  "bytecode": "0x608060405234801561001057600080fd5b50613a45806100206000396000f3fe608060405234801561001057600080fd5b50600436106100415760003560e01c8063140e42b31461004657806316b759b114610076578063ee98500a146100a6575b600080fd5b610060600480360381019061005b9190612aa1565b6100d6565b60405161006d9190612e3b565b60405180910390f35b610090600480360381019061008b9190612a07565b61062b565b60405161009d9190612e3b565b60405180910390f35b6100c060048036038101906100bb9190612ae1565b611458565b6040516100cd9190612e3b565b60405180910390f35b6000806100e1611bb4565b905060006100ed611be1565b905060006100f9611c0e565b905060008360010160008881526020019081526020016000206040518061018001604052908160008201805461012e9061344a565b80601f016020809104026020016040519081016040528092919081815260200182805461015a9061344a565b80156101a75780601f1061017c576101008083540402835291602001916101a7565b820191906000526020600020905b81548152906001019060200180831161018a57829003601f168201915b505050505081526020016001820154815260200160028201548152602001600382015481526020016004820154815260200160058201548152602001600682015481526020016007820160009054906101000a900473ffffffffffffffffffffffffffffffffffffffff1673ffffffffffffffffffffffffffffffffffffffff1673ffffffffffffffffffffffffffffffffffffffff1681526020016008820154815260200160098201548152602001600a820160009054906101000a900473ffffffffffffffffffffffffffffffffffffffff1673ffffffffffffffffffffffffffffffffffffffff1673ffffffffffffffffffffffffffffffffffffffff168152602001600b820160009054906101000a900473ffffffffffffffffffffffffffffffffffffffff1673ffffffffffffffffffffffffffffffffffffffff1673ffffffffffffffffffffffffffffffffffffffff16815250509050600081610140015190506000826101600151905060008273ffffffffffffffffffffffffffffffffffffffff166370a08231336040518263ffffffff1660e01b81526004016103539190612df7565b60206040518083038186803b15801561036b57600080fd5b505afa15801561037f573d6000803e3d6000fd5b505050506040513d601f19601f820116820180604052508101906103a39190612a74565b1180610437575060008173ffffffffffffffffffffffffffffffffffffffff166370a08231336040518263ffffffff1660e01b81526004016103e59190612df7565b60206040518083038186803b1580156103fd57600080fd5b505afa158015610411573d6000803e3d6000fd5b505050506040513d601f19601f820116820180604052508101906104359190612a74565b115b610476576040517f08c379a000000000000000000000000000000000000000000000000000000000815260040161046d90612fc6565b60405180910390fd5b60008560000160008b81526020019081526020016000209050600160038111156104a3576104a26134da565b5b8160010160009054906101000a900460ff1660038111156104c7576104c66134da565b5b14610507576040517f08c379a00000000000000000000000000000000000000000000000000000000081526004016104fe90613026565b60405180910390fd5b8460030154816004015461051b91906130bd565b42111561055d576040517f08c379a000000000000000000000000000000000000000000000000000000000815260040161055490612f86565b60405180910390fd5b60028160010160006101000a81548160ff02191690836003811115610585576105846134da565b5b0217905550428160040181905550898160050160009054906101000a900473ffffffffffffffffffffffffffffffffffffffff1673ffffffffffffffffffffffffffffffffffffffff16600260038111156105e3576105e26134da565b5b7f1f0f4d55353f9b9353a225593a52fcd25277e0089ceb197d0ab58738f4200a428c6040516106129190613086565b60405180910390a4600197505050505050505092915050565b600080610636611be1565b90506000610642611c0e565b905060008590506000610653611bb4565b60010160008373ffffffffffffffffffffffffffffffffffffffff16631c2b64456040518163ffffffff1660e01b815260040160206040518083038186803b15801561069e57600080fd5b505afa1580156106b2573d6000803e3d6000fd5b505050506040513d601f19601f820116820180604052508101906106d69190612a74565b8152602001908152602001600020604051806101800160405290816000820180546107009061344a565b80601f016020809104026020016040519081016040528092919081815260200182805461072c9061344a565b80156107795780601f1061074e57610100808354040283529160200191610779565b820191906000526020600020905b81548152906001019060200180831161075c57829003601f168201915b505050505081526020016001820154815260200160028201548152602001600382015481526020016004820154815260200160058201548152602001600682015481526020016007820160009054906101000a900473ffffffffffffffffffffffffffffffffffffffff1673ffffffffffffffffffffffffffffffffffffffff1673ffffffffffffffffffffffffffffffffffffffff1681526020016008820154815260200160098201548152602001600a820160009054906101000a900473ffffffffffffffffffffffffffffffffffffffff1673ffffffffffffffffffffffffffffffffffffffff1673ffffffffffffffffffffffffffffffffffffffff168152602001600b820160009054906101000a900473ffffffffffffffffffffffffffffffffffffffff1673ffffffffffffffffffffffffffffffffffffffff1673ffffffffffffffffffffffffffffffffffffffff1681525050905060008460000160008473ffffffffffffffffffffffffffffffffffffffff16631c2b64456040518163ffffffff1660e01b815260040160206040518083038186803b15801561092457600080fd5b505afa158015610938573d6000803e3d6000fd5b505050506040513d601f19601f8201168201806040525081019061095c9190612a74565b81526020019081526020016000209050600073ffffffffffffffffffffffffffffffffffffffff168873ffffffffffffffffffffffffffffffffffffffff1614156109dc576040517f08c379a00000000000000000000000000000000000000000000000000000000081526004016109d390612f26565b60405180910390fd5b8773ffffffffffffffffffffffffffffffffffffffff1682610140015173ffffffffffffffffffffffffffffffffffffffff161480610a4b57508773ffffffffffffffffffffffffffffffffffffffff1682610160015173ffffffffffffffffffffffffffffffffffffffff16145b610a8a576040517f08c379a0000000000000000000000000000000000000000000000000000000008152600401610a8190613066565b60405180910390fd5b60008373ffffffffffffffffffffffffffffffffffffffff166370a08231336040518263ffffffff1660e01b8152600401610ac59190612df7565b60206040518083038186803b158015610add57600080fd5b505afa158015610af1573d6000803e3d6000fd5b505050506040513d601f19601f82011682018060405250810190610b159190612a74565b11610b55576040517f08c379a0000000000000000000000000000000000000000000000000000000008152600401610b4c90612f46565b60405180910390fd5b60006003811115610b6957610b686134da565b5b8160010160009054906101000a900460ff166003811115610b8d57610b8c6134da565b5b1415610bce576040517f08c379a0000000000000000000000000000000000000000000000000000000008152600401610bc590612ee6565b60405180910390fd5b600060016003811115610be457610be36134da565b5b8260010160009054906101000a900460ff166003811115610c0857610c076134da565b5b1415610c6c5784600301548260040154610c2291906130bd565b4211610c63576040517f08c379a0000000000000000000000000000000000000000000000000000000008152600401610c5a90613006565b60405180910390fd5b60019050610d05565b60026003811115610c8057610c7f6134da565b5b8260010160009054906101000a900460ff166003811115610ca457610ca36134da565b5b1415610d045784600401548260040154610cbe91906130bd565b4211610cff576040517f08c379a0000000000000000000000000000000000000000000000000000000008152600401610cf690612f66565b60405180910390fd5b600190505b5b80156110855760038260010160006101000a81548160ff02191690836003811115610d3357610d326134da565b5b02179055504282600401819055508373ffffffffffffffffffffffffffffffffffffffff16631c2b64456040518163ffffffff1660e01b815260040160206040518083038186803b158015610d8757600080fd5b505afa158015610d9b573d6000803e3d6000fd5b505050506040513d601f19601f82011682018060405250810190610dbf9190612a74565b8260050160009054906101000a900473ffffffffffffffffffffffffffffffffffffffff1673ffffffffffffffffffffffffffffffffffffffff16600380811115610e0d57610e0c6134da565b5b7f1f0f4d55353f9b9353a225593a52fcd25277e0089ceb197d0ab58738f4200a428560000154604051610e409190613086565b60405180910390a4610ed38473ffffffffffffffffffffffffffffffffffffffff16631c2b64456040518163ffffffff1660e01b815260040160206040518083038186803b158015610e9157600080fd5b505afa158015610ea5573d6000803e3d6000fd5b505050506040513d601f19601f82011682018060405250810190610ec99190612a74565b8360000154611c3b565b610f12576040517f08c379a0000000000000000000000000000000000000000000000000000000008152600401610f0990612e86565b60405180910390fd5b610fc28473ffffffffffffffffffffffffffffffffffffffff16631c2b64456040518163ffffffff1660e01b815260040160206040518083038186803b158015610f5b57600080fd5b505afa158015610f6f573d6000803e3d6000fd5b505050506040513d601f19601f82011682018060405250810190610f939190612a74565b83600601548760050160009054906101000a900473ffffffffffffffffffffffffffffffffffffffff1661233a565b610fcb57600080fd5b61107b8473ffffffffffffffffffffffffffffffffffffffff16631c2b64456040518163ffffffff1660e01b815260040160206040518083038186803b15801561101457600080fd5b505afa158015611028573d6000803e3d6000fd5b505050506040513d601f19601f8201168201806040525081019061104c9190612a74565b83600701548460050160009054906101000a900473ffffffffffffffffffffffffffffffffffffffff1661233a565b61108457600080fd5b5b600380811115611098576110976134da565b5b8260010160009054906101000a900460ff1660038111156110bc576110bb6134da565b5b1415611448578373ffffffffffffffffffffffffffffffffffffffff16630664817a338a6040518363ffffffff1660e01b81526004016110fd929190612e12565b602060405180830381600087803b15801561111757600080fd5b505af115801561112b573d6000803e3d6000fd5b505050506040513d601f19601f8201168201806040525081019061114f9190612a47565b61118e576040517f08c379a000000000000000000000000000000000000000000000000000000000815260040161118590612ec6565b60405180910390fd5b60008360e00151905060008573ffffffffffffffffffffffffffffffffffffffff1663202a61a16040518163ffffffff1660e01b815260040160206040518083038186803b1580156111df57600080fd5b505afa1580156111f3573d6000803e3d6000fd5b505050506040513d601f19601f820116820180604052508101906112179190612a47565b156112285783600201549050611230565b836003015490505b8173ffffffffffffffffffffffffffffffffffffffff1663a9059cbb338473ffffffffffffffffffffffffffffffffffffffff1663313ce5676040518163ffffffff1660e01b815260040160206040518083038186803b15801561129357600080fd5b505afa1580156112a7573d6000803e3d6000fd5b505050506040513d601f19601f820116820180604052508101906112cb9190612b34565b60126112d7919061338e565b600a6112e391906131e2565b61138d8673ffffffffffffffffffffffffffffffffffffffff1663313ce5676040518163ffffffff1660e01b815260040160206040518083038186803b15801561132c57600080fd5b505afa158015611340573d6000803e3d6000fd5b505050506040513d601f19601f820116820180604052508101906113649190612b34565b6012611370919061338e565b600a61137c91906131e2565b866113879190613300565b8f6126d5565b6113979190613113565b6040518363ffffffff1660e01b81526004016113b4929190612e12565b602060405180830381600087803b1580156113ce57600080fd5b505af11580156113e2573d6000803e3d6000fd5b505050506040513d601f19601f820116820180604052508101906114069190612a47565b611445576040517f08c379a000000000000000000000000000000000000000000000000000000000815260040161143c90612fe6565b60405180910390fd5b50505b6001965050505050505092915050565b600080611463611bb4565b9050600061146f611be1565b9050600061147b611c0e565b90506000836001016000898152602001908152602001600020604051806101800160405290816000820180546114b09061344a565b80601f01602080910402602001604051908101604052809291908181526020018280546114dc9061344a565b80156115295780601f106114fe57610100808354040283529160200191611529565b820191906000526020600020905b81548152906001019060200180831161150c57829003601f168201915b505050505081526020016001820154815260200160028201548152602001600382015481526020016004820154815260200160058201548152602001600682015481526020016007820160009054906101000a900473ffffffffffffffffffffffffffffffffffffffff1673ffffffffffffffffffffffffffffffffffffffff1673ffffffffffffffffffffffffffffffffffffffff1681526020016008820154815260200160098201548152602001600a820160009054906101000a900473ffffffffffffffffffffffffffffffffffffffff1673ffffffffffffffffffffffffffffffffffffffff1673ffffffffffffffffffffffffffffffffffffffff168152602001600b820160009054906101000a900473ffffffffffffffffffffffffffffffffffffffff1673ffffffffffffffffffffffffffffffffffffffff1673ffffffffffffffffffffffffffffffffffffffff1681525050905060008360000160008a8152602001908152602001600020905060008060008060038111156116b7576116b66134da565b5b8460010160009054906101000a900460ff1660038111156116db576116da6134da565b5b148061171c5750600260038111156116f6576116f56134da565b5b8460010160009054906101000a900460ff16600381111561171a576117196134da565b5b145b61175b576040517f08c379a000000000000000000000000000000000000000000000000000000000815260040161175290612ea6565b60405180910390fd5b6000600381111561176f5761176e6134da565b5b8460010160009054906101000a900460ff166003811115611793576117926134da565b5b14156117f3578460c001514210156117e0576040517f08c379a00000000000000000000000000000000000000000000000000000000081526004016117d790612fa6565b60405180910390fd5b856002015491508460c001519050611841565b60026003811115611807576118066134da565b5b8460010160009054906101000a900460ff16600381111561182b5761182a6134da565b5b14156118405785600401549150836004015490505b5b818161184d91906130bd565b4211611a34578360050160009054906101000a900473ffffffffffffffffffffffffffffffffffffffff1673ffffffffffffffffffffffffffffffffffffffff163373ffffffffffffffffffffffffffffffffffffffff16146118e5576040517f08c379a00000000000000000000000000000000000000000000000000000000081526004016118dc90613046565b60405180910390fd5b600015158a1515148061193c575060026003811115611907576119066134da565b5b8460010160009054906101000a900460ff16600381111561192b5761192a6134da565b5b14801561193b575083600001548b145b5b156119fe5760038460010160006101000a81548160ff02191690836003811115611969576119686134da565b5b02179055506119788c8c611c3b565b61198157600080fd5b6119b48c85600601548860050160009054906101000a900473ffffffffffffffffffffffffffffffffffffffff1661233a565b6119bd57600080fd5b6119f08c85600701548660050160009054906101000a900473ffffffffffffffffffffffffffffffffffffffff1661233a565b6119f957600080fd5b611a2c565b60018460010160006101000a81548160ff02191690836003811115611a2657611a256134da565b5b02179055505b8a9250611af4565b8460200151925060038460010160006101000a81548160ff02191690836003811115611a6357611a626134da565b5b0217905550611a728c84611c3b565b611a7b57600080fd5b611aae8c85600601548860050160009054906101000a900473ffffffffffffffffffffffffffffffffffffffff1661233a565b611ab757600080fd5b611aea8c85600701548660050160009054906101000a900473ffffffffffffffffffffffffffffffffffffffff1661233a565b611af357600080fd5b5b8284600001819055504284600401819055508b8460050160009054906101000a900473ffffffffffffffffffffffffffffffffffffffff1673ffffffffffffffffffffffffffffffffffffffff168560010160009054906101000a900460ff166003811115611b6657611b656134da565b5b7f1f0f4d55353f9b9353a225593a52fcd25277e0089ceb197d0ab58738f4200a428760000154604051611b999190613086565b60405180910390a46001985050505050505050509392505050565b6000807fcc417575c10859aa5dfeb3852f94a953b6cd45ff730a855ae5f031545a7b38f290508091505090565b6000807f80298284f7703c7e1d95b37e0bae70479dbd85a5bc24f40420211d04f81b1f3690508091505090565b6000807f898b136e888260ec0628fb6c3ad8f54cb15908878595b2abfc8c9ecda73a4daf90508091505090565b600080611c46611bb4565b90506000611c52611be1565b9050600082600101600087815260200190815260200160002060405180610180016040529081600082018054611c879061344a565b80601f0160208091040260200160405190810160405280929190818152602001828054611cb39061344a565b8015611d005780601f10611cd557610100808354040283529160200191611d00565b820191906000526020600020905b815481529060010190602001808311611ce357829003601f168201915b505050505081526020016001820154815260200160028201548152602001600382015481526020016004820154815260200160058201548152602001600682015481526020016007820160009054906101000a900473ffffffffffffffffffffffffffffffffffffffff1673ffffffffffffffffffffffffffffffffffffffff1673ffffffffffffffffffffffffffffffffffffffff1681526020016008820154815260200160098201548152602001600a820160009054906101000a900473ffffffffffffffffffffffffffffffffffffffff1673ffffffffffffffffffffffffffffffffffffffff1673ffffffffffffffffffffffffffffffffffffffff168152602001600b820160009054906101000a900473ffffffffffffffffffffffffffffffffffffffff1673ffffffffffffffffffffffffffffffffffffffff1673ffffffffffffffffffffffffffffffffffffffff1681525050905060008260000160008881526020019081526020016000209050600080600380811115611e8c57611e8b6134da565b5b8360010160009054906101000a900460ff166003811115611eb057611eaf6134da565b5b14611eba57600080fd5b60008360020154148015611ed2575060008360030154145b611edb57600080fd5b60008460e00151905060008173ffffffffffffffffffffffffffffffffffffffff1663313ce5676040518163ffffffff1660e01b815260040160206040518083038186803b158015611f2c57600080fd5b505afa158015611f40573d6000803e3d6000fd5b505050506040513d601f19601f82011682018060405250810190611f649190612b34565b6012611f70919061338e565b600a611f7c91906131e2565b9050611fb8866020015187604001518860600151848a6101200151611fa19190613300565b858b6101000151611fb29190613300565b8f612706565b80955081945050506120036040518060400160405280601181526020017f2a2a2a20696e666c656374696f6e2025730000000000000000000000000000008152508760200151612833565b6120466040518060400160405280600a81526020017f2a2a2a20636170202573000000000000000000000000000000000000000000008152508760400151612833565b6120896040518060400160405280600c81526020017f2a2a2a20666c6f6f7220257300000000000000000000000000000000000000008152508760600151612833565b6120d86040518060400160405280600981526020017f2a2a2a20434c2025730000000000000000000000000000000000000000000000815250828861012001516120d39190613300565b612833565b6121276040518060400160405280600981526020017f2a2a2a2043532025730000000000000000000000000000000000000000000000815250828861010001516121229190613300565b612833565b6121666040518060400160405280601281526020017f2a2a2a2066696e616c20707269636520257300000000000000000000000000008152508b612833565b6121a56040518060400160405280601281526020017f2a2a2a7061796f666653686f72743a202573000000000000000000000000000081525084612833565b6121e46040518060400160405280601181526020017f2a2a2a7061796f66664c6f6e673a20257300000000000000000000000000000081525085612833565b60006121f48660060154866126d5565b905060006122068760060154866126d5565b905060006122188860070154886126d5565b9050600061222a8960070154886126d5565b90506000828561223a91906130bd565b89612245919061335a565b90506000828561225591906130bd565b89612260919061335a565b90506122a16040518060400160405280601681526020017f2a2a2a7061796f666653686f7274204e65743a2025730000000000000000000081525082612833565b6122e06040518060400160405280601581526020017f2a2a2a7061796f66664c6f6e67204e65743a202573000000000000000000000081525083612833565b866122ef838e60a001516128cf565b6122f99190613113565b8b6002018190555086612310828e608001516128cf565b61231a9190613113565b8b6003018190555060019e50505050505050505050505050505092915050565b600080612345611bb4565b905060008160010160008781526020019081526020016000206040518061018001604052908160008201805461237a9061344a565b80601f01602080910402602001604051908101604052809291908181526020018280546123a69061344a565b80156123f35780601f106123c8576101008083540402835291602001916123f3565b820191906000526020600020905b8154815290600101906020018083116123d657829003601f168201915b505050505081526020016001820154815260200160028201548152602001600382015481526020016004820154815260200160058201548152602001600682015481526020016007820160009054906101000a900473ffffffffffffffffffffffffffffffffffffffff1673ffffffffffffffffffffffffffffffffffffffff1673ffffffffffffffffffffffffffffffffffffffff1681526020016008820154815260200160098201548152602001600a820160009054906101000a900473ffffffffffffffffffffffffffffffffffffffff1673ffffffffffffffffffffffffffffffffffffffff1673ffffffffffffffffffffffffffffffffffffffff168152602001600b820160009054906101000a900473ffffffffffffffffffffffffffffffffffffffff1673ffffffffffffffffffffffffffffffffffffffff1673ffffffffffffffffffffffffffffffffffffffff1681525050905060008160e00151905060006125f88784610100015185610120015161257591906130bd565b8473ffffffffffffffffffffffffffffffffffffffff1663313ce5676040518163ffffffff1660e01b815260040160206040518083038186803b1580156125bb57600080fd5b505afa1580156125cf573d6000803e3d6000fd5b505050506040513d601f19601f820116820180604052508101906125f39190612b34565b612900565b90508173ffffffffffffffffffffffffffffffffffffffff1663a9059cbb87836040518363ffffffff1660e01b8152600401612635929190612e12565b602060405180830381600087803b15801561264f57600080fd5b505af1158015612663573d6000803e3d6000fd5b505050506040513d601f19601f820116820180604052508101906126879190612a47565b6126c6576040517f08c379a00000000000000000000000000000000000000000000000000000000081526004016126bd90612f06565b60405180910390fd5b60019450505050509392505050565b6000601260ff16600a6126e89190613197565b82846126f49190613300565b6126fe9190613113565b905092915050565b600080878314156127195784905061280f565b8783101561278a57878714801561272f57508786145b8061273957508786145b156127475760009050612785565b8583111561277f57612778612767868886612762919061335a565b6126d5565b878a612773919061335a565b6128cf565b9050612784565b600090505b5b61280e565b878714801561279857508786145b806127a257508688145b156127ba5783856127b391906130bd565b905061280d565b868310156127fd576127eb6127da858a866127d5919061335a565b6126d5565b89896127e6919061335a565b6128cf565b856127f691906130bd565b905061280c565b838561280991906130bd565b90505b5b5b5b80848661281c91906130bd565b612826919061335a565b9150965096945050505050565b6128cb8282604051602401612849929190612e56565b6040516020818303038152906040527f9710a9d0000000000000000000000000000000000000000000000000000000007bffffffffffffffffffffffffffffffffffffffffffffffffffffffff19166020820180517bffffffffffffffffffffffffffffffffffffffffffffffffffffffff8381831617835250505050612960565b5050565b600081601260ff16600a6128e39190613197565b846128ee9190613300565b6128f89190613113565b905092915050565b600080826012612910919061338e565b600a61291c91906131e2565b6129498685601261292d919061338e565b600a61293991906131e2565b876129449190613300565b6126d5565b6129539190613113565b9050809150509392505050565b60008151905060006a636f6e736f6c652e6c6f679050602083016000808483855afa5050505050565b600081359050612998816139b3565b92915050565b6000813590506129ad816139ca565b92915050565b6000815190506129c2816139ca565b92915050565b6000813590506129d7816139e1565b92915050565b6000815190506129ec816139e1565b92915050565b600081519050612a01816139f8565b92915050565b60008060408385031215612a1e57612a1d613538565b5b6000612a2c85828601612989565b9250506020612a3d858286016129c8565b9150509250929050565b600060208284031215612a5d57612a5c613538565b5b6000612a6b848285016129b3565b91505092915050565b600060208284031215612a8a57612a89613538565b5b6000612a98848285016129dd565b91505092915050565b60008060408385031215612ab857612ab7613538565b5b6000612ac6858286016129c8565b9250506020612ad7858286016129c8565b9150509250929050565b600080600060608486031215612afa57612af9613538565b5b6000612b08868287016129c8565b9350506020612b19868287016129c8565b9250506040612b2a8682870161299e565b9150509250925092565b600060208284031215612b4a57612b49613538565b5b6000612b58848285016129f2565b91505092915050565b612b6a816133c2565b82525050565b612b79816133d4565b82525050565b6000612b8a826130a1565b612b9481856130ac565b9350612ba4818560208601613417565b612bad8161353d565b840191505092915050565b6000612bc5601f836130ac565b9150612bd08261355b565b602082019050919050565b6000612be86030836130ac565b9150612bf382613584565b604082019050919050565b6000612c0b6029836130ac565b9150612c16826135d3565b604082019050919050565b6000612c2e601d836130ac565b9150612c3982613622565b602082019050919050565b6000612c516019836130ac565b9150612c5c8261364b565b602082019050919050565b6000612c746024836130ac565b9150612c7f82613674565b604082019050919050565b6000612c976021836130ac565b9150612ca2826136c3565b604082019050919050565b6000612cba6023836130ac565b9150612cc582613712565b604082019050919050565b6000612cdd6021836130ac565b9150612ce882613761565b604082019050919050565b6000612d006022836130ac565b9150612d0b826137b0565b604082019050919050565b6000612d236029836130ac565b9150612d2e826137ff565b604082019050919050565b6000612d466021836130ac565b9150612d518261384e565b604082019050919050565b6000612d696026836130ac565b9150612d748261389d565b604082019050919050565b6000612d8c601e836130ac565b9150612d97826138ec565b602082019050919050565b6000612daf602a836130ac565b9150612dba82613915565b604082019050919050565b6000612dd26024836130ac565b9150612ddd82613964565b604082019050919050565b612df181613400565b82525050565b6000602082019050612e0c6000830184612b61565b92915050565b6000604082019050612e276000830185612b61565b612e346020830184612de8565b9392505050565b6000602082019050612e506000830184612b70565b92915050565b60006040820190508181036000830152612e708185612b7f565b9050612e7f6020830184612de8565b9392505050565b60006020820190508181036000830152612e9f81612bb8565b9050919050565b60006020820190508181036000830152612ebf81612bdb565b9050919050565b60006020820190508181036000830152612edf81612bfe565b9050919050565b60006020820190508181036000830152612eff81612c21565b9050919050565b60006020820190508181036000830152612f1f81612c44565b9050919050565b60006020820190508181036000830152612f3f81612c67565b9050919050565b60006020820190508181036000830152612f5f81612c8a565b9050919050565b60006020820190508181036000830152612f7f81612cad565b9050919050565b60006020820190508181036000830152612f9f81612cd0565b9050919050565b60006020820190508181036000830152612fbf81612cf3565b9050919050565b60006020820190508181036000830152612fdf81612d16565b9050919050565b60006020820190508181036000830152612fff81612d39565b9050919050565b6000602082019050818103600083015261301f81612d5c565b9050919050565b6000602082019050818103600083015261303f81612d7f565b9050919050565b6000602082019050818103600083015261305f81612da2565b9050919050565b6000602082019050818103600083015261307f81612dc5565b9050919050565b600060208201905061309b6000830184612de8565b92915050565b600081519050919050565b600082825260208201905092915050565b60006130c882613400565b91506130d383613400565b9250827fffffffffffffffffffffffffffffffffffffffffffffffffffffffffffffffff038211156131085761310761347c565b5b828201905092915050565b600061311e82613400565b915061312983613400565b925082613139576131386134ab565b5b828204905092915050565b6000808291508390505b600185111561318e5780860481111561316a5761316961347c565b5b60018516156131795780820291505b80810290506131878561354e565b945061314e565b94509492505050565b60006131a282613400565b91506131ad83613400565b92506131da7fffffffffffffffffffffffffffffffffffffffffffffffffffffffffffffffff848461322d565b905092915050565b60006131ed82613400565b91506131f88361340a565b92506132257fffffffffffffffffffffffffffffffffffffffffffffffffffffffffffffffff848461322d565b905092915050565b60008261323d57600190506132f9565b8161324b57600090506132f9565b8160018114613261576002811461326b5761329a565b60019150506132f9565b60ff84111561327d5761327c61347c565b5b8360020a9150848211156132945761329361347c565b5b506132f9565b5060208310610133831016604e8410600b84101617156132cf5782820a9050838111156132ca576132c961347c565b5b6132f9565b6132dc8484846001613144565b925090508184048111156132f3576132f261347c565b5b81810290505b9392505050565b600061330b82613400565b915061331683613400565b9250817fffffffffffffffffffffffffffffffffffffffffffffffffffffffffffffffff048311821515161561334f5761334e61347c565b5b828202905092915050565b600061336582613400565b915061337083613400565b9250828210156133835761338261347c565b5b828203905092915050565b60006133998261340a565b91506133a48361340a565b9250828210156133b7576133b661347c565b5b828203905092915050565b60006133cd826133e0565b9050919050565b60008115159050919050565b600073ffffffffffffffffffffffffffffffffffffffff82169050919050565b6000819050919050565b600060ff82169050919050565b60005b8381101561343557808201518184015260208101905061341a565b83811115613444576000848401525b50505050565b6000600282049050600182168061346257607f821691505b6020821081141561347657613475613509565b5b50919050565b7f4e487b7100000000000000000000000000000000000000000000000000000000600052601160045260246000fd5b7f4e487b7100000000000000000000000000000000000000000000000000000000600052601260045260246000fd5b7f4e487b7100000000000000000000000000000000000000000000000000000000600052602160045260246000fd5b7f4e487b7100000000000000000000000000000000000000000000000000000000600052602260045260246000fd5b600080fd5b6000601f19601f8301169050919050565b60008160011c9050919050565b7f444956413a20726564656d7074696f6e20616d6f756e74206e6f742073657400600082015250565b7f536574746c656d656e743a20507269636520697320616c72656164792073756260008201527f6d69747465642f636f6e6669726d656400000000000000000000000000000000602082015250565b7f444956413a20726564656d7074696f6e206f6620706f736974696f6e20746f6b60008201527f656e206661696c65640000000000000000000000000000000000000000000000602082015250565b7f444956413a2066696e616c207072696365206e6f742073657420796574000000600082015250565b7f444956413a20666565207472616e73666572206661696c656400000000000000600082015250565b7f444956413a20706f736974696f6e20746f6b656e206973207a65726f2061646460008201527f7265737300000000000000000000000000000000000000000000000000000000602082015250565b7f444956413a207a65726f20706f736974696f6e20746f6b656e2062616c616e6360008201527f6500000000000000000000000000000000000000000000000000000000000000602082015250565b7f444956413a2072657669657720706572696f64206e6f7420796574206578706960008201527f7265640000000000000000000000000000000000000000000000000000000000602082015250565b7f444956413a206f757473696465206f66206368616c6c656e676520706572696f60008201527f6400000000000000000000000000000000000000000000000000000000000000602082015250565b7f536574746c656d656e743a204f7074696f6e206e6f742065787069726564207960008201527f6574000000000000000000000000000000000000000000000000000000000000602082015250565b7f444956413a2063616c6c657220646f6573206e6f74206f776e20706f7369746960008201527f6f6e20746f6b656e730000000000000000000000000000000000000000000000602082015250565b7f444956413a206661696c656420746f2072657475726e20636f6c6c617465726160008201527f6c00000000000000000000000000000000000000000000000000000000000000602082015250565b7f444956413a206368616c6c656e676520706572696f64206e6f7420796574206560008201527f7870697265640000000000000000000000000000000000000000000000000000602082015250565b7f444956413a206e6f7468696e6720746f206368616c6c656e6765207965740000600082015250565b7f536574746c656d656e743a204e6f207065726d697373696f6e20746f2073657460008201527f2074686520707269636500000000000000000000000000000000000000000000602082015250565b7f444956413a20696e76616c696420706f736974696f6e20746f6b656e2061646460008201527f7265737300000000000000000000000000000000000000000000000000000000602082015250565b6139bc816133c2565b81146139c757600080fd5b50565b6139d3816133d4565b81146139de57600080fd5b50565b6139ea81613400565b81146139f557600080fd5b50565b613a018161340a565b8114613a0c57600080fd5b5056fea2646970667358221220c1fdaf437ee7a317b5d79387da2bfb6f28e42468a0effe1c4e545e391ef2e01764736f6c63430008060033",
  "linkReferences": {},
  "deployedLinkReferences": {}
}